{
  "contractName": "Babylon",
  "abi": [
    {
      "inputs": [
        {
          "internalType": "address",
          "name": "auth_",
          "type": "address"
        },
        {
          "internalType": "address",
          "name": "root_",
          "type": "address"
        }
      ],
      "stateMutability": "nonpayable",
      "type": "constructor"
    },
    {
      "anonymous": false,
      "inputs": [
        {
          "indexed": true,
          "internalType": "address",
          "name": "previousOwner",
          "type": "address"
        },
        {
          "indexed": true,
          "internalType": "address",
          "name": "newOwner",
          "type": "address"
        }
      ],
      "name": "OwnershipTransferred",
      "type": "event"
    },
    {
      "inputs": [
        {
          "internalType": "uint256",
          "name": "",
          "type": "uint256"
        }
      ],
      "name": "_all_users",
      "outputs": [
        {
          "internalType": "address",
          "name": "",
          "type": "address"
        }
      ],
      "stateMutability": "view",
      "type": "function"
    },
    {
      "inputs": [
        {
          "internalType": "address",
          "name": "",
          "type": "address"
        }
      ],
      "name": "_amounts",
      "outputs": [
        {
          "internalType": "uint256",
          "name": "",
          "type": "uint256"
        }
      ],
      "stateMutability": "view",
      "type": "function"
    },
    {
      "inputs": [],
      "name": "_authority",
      "outputs": [
        {
          "internalType": "contract Authority",
          "name": "",
          "type": "address"
        }
      ],
      "stateMutability": "view",
      "type": "function"
    },
    {
      "inputs": [
        {
          "internalType": "address",
          "name": "",
          "type": "address"
        }
      ],
      "name": "_is_superiors",
      "outputs": [
        {
          "internalType": "address",
          "name": "",
          "type": "address"
        }
      ],
      "stateMutability": "view",
      "type": "function"
    },
    {
      "inputs": [
        {
          "internalType": "address",
          "name": "",
          "type": "address"
        }
      ],
      "name": "_is_users",
      "outputs": [
        {
          "internalType": "bool",
          "name": "",
          "type": "bool"
        }
      ],
      "stateMutability": "view",
      "type": "function"
    },
    {
      "inputs": [
        {
          "internalType": "address",
          "name": "",
          "type": "address"
        },
        {
          "internalType": "uint256",
          "name": "",
          "type": "uint256"
        }
      ],
      "name": "_lowers",
      "outputs": [
        {
          "internalType": "address",
          "name": "",
          "type": "address"
        }
      ],
      "stateMutability": "view",
      "type": "function"
    },
    {
      "inputs": [
        {
          "internalType": "string",
          "name": "",
          "type": "string"
        }
      ],
      "name": "_members",
      "outputs": [
        {
          "internalType": "address",
          "name": "",
          "type": "address"
        }
      ],
      "stateMutability": "view",
      "type": "function"
    },
    {
      "inputs": [
        {
          "internalType": "address",
          "name": "",
          "type": "address"
        },
        {
          "internalType": "string",
          "name": "",
          "type": "string"
        }
      ],
      "name": "_permits",
      "outputs": [
        {
          "internalType": "bool",
          "name": "",
          "type": "bool"
        }
      ],
      "stateMutability": "view",
      "type": "function"
    },
    {
      "inputs": [
        {
          "internalType": "uint256",
          "name": "",
          "type": "uint256"
        }
      ],
      "name": "_roots",
      "outputs": [
        {
          "internalType": "address",
          "name": "",
          "type": "address"
        }
      ],
      "stateMutability": "view",
      "type": "function"
    },
    {
      "inputs": [],
      "name": "owner",
      "outputs": [
        {
          "internalType": "address",
          "name": "",
          "type": "address"
        }
      ],
      "stateMutability": "view",
      "type": "function"
    },
    {
      "inputs": [],
      "name": "renounceOwnership",
      "outputs": [],
      "stateMutability": "nonpayable",
      "type": "function"
    },
    {
      "inputs": [
        {
          "internalType": "address",
          "name": "authority_",
          "type": "address"
        }
      ],
      "name": "setAuthority",
      "outputs": [],
      "stateMutability": "nonpayable",
      "type": "function"
    },
    {
      "inputs": [
        {
          "internalType": "address",
          "name": "newOwner",
          "type": "address"
        }
      ],
      "name": "transferOwnership",
      "outputs": [],
      "stateMutability": "nonpayable",
      "type": "function"
    },
    {
      "inputs": [
        {
          "internalType": "address",
          "name": "account_",
          "type": "address"
        }
      ],
      "name": "get_amount",
      "outputs": [
        {
          "internalType": "uint256",
          "name": "",
          "type": "uint256"
        }
      ],
      "stateMutability": "view",
      "type": "function"
    },
    {
      "inputs": [
        {
          "internalType": "address",
          "name": "superior",
          "type": "address"
        }
      ],
      "name": "set_superior",
      "outputs": [],
      "stateMutability": "nonpayable",
      "type": "function"
    },
    {
      "inputs": [
        {
          "internalType": "address",
          "name": "account_",
          "type": "address"
        },
        {
          "internalType": "address",
          "name": "superior_",
          "type": "address"
        },
        {
          "internalType": "uint256",
          "name": "amount_",
          "type": "uint256"
        }
      ],
      "name": "deposit",
      "outputs": [],
      "stateMutability": "nonpayable",
      "type": "function"
    },
    {
      "inputs": [
        {
          "internalType": "address",
          "name": "account_",
          "type": "address"
        }
      ],
      "name": "withdraw",
      "outputs": [],
      "stateMutability": "nonpayable",
      "type": "function"
    },
    {
      "inputs": [],
      "name": "calculation_total",
      "outputs": [
        {
          "internalType": "uint256",
          "name": "total",
          "type": "uint256"
        }
      ],
      "stateMutability": "view",
      "type": "function"
    },
    {
      "inputs": [
        {
          "internalType": "address",
          "name": "account",
          "type": "address"
        }
      ],
      "name": "calculation_myself",
      "outputs": [
        {
          "internalType": "uint256",
          "name": "total",
          "type": "uint256"
        }
      ],
      "stateMutability": "view",
      "type": "function"
    },
    {
      "inputs": [
        {
          "internalType": "address",
          "name": "account_",
          "type": "address"
        }
      ],
      "name": "get_tops",
      "outputs": [
        {
          "internalType": "uint256",
          "name": "",
          "type": "uint256"
        }
      ],
      "stateMutability": "pure",
      "type": "function"
    },
    {
      "inputs": [
        {
          "internalType": "address",
          "name": "account_",
          "type": "address"
        }
      ],
      "name": "get_period",
      "outputs": [
        {
          "internalType": "uint256",
          "name": "period",
          "type": "uint256"
        }
      ],
      "stateMutability": "pure",
      "type": "function"
    }
  ],
  "bytecode": "0x608060405234801561001057600080fd5b506040516122ef3803806122ef8339818101604052604081101561003357600080fd5b81019080805190602001909291908051906020019092919050505081600061005f6101a960201b60201c565b9050806000806101000a81548173ffffffffffffffffffffffffffffffffffffffff021916908373ffffffffffffffffffffffffffffffffffffffff1602179055508073ffffffffffffffffffffffffffffffffffffffff16600073ffffffffffffffffffffffffffffffffffffffff167f8be0079c531659141344cd1fd0a4f28419497f9722a3daafe3b4186f6b6457e060405160405180910390a35080600160006101000a81548173ffffffffffffffffffffffffffffffffffffffff021916908373ffffffffffffffffffffffffffffffffffffffff160217905550506004819080600181540180825580915050600190039060005260206000200160009091909190916101000a81548173ffffffffffffffffffffffffffffffffffffffff021916908373ffffffffffffffffffffffffffffffffffffffff16021790555050506101b1565b600033905090565b61212f806101c06000396000f3fe608060405234801561001057600080fd5b50600436106101375760003560e01c80637a9e5e4b116100b85780638da5cb5b1161007c5780638da5cb5b146106b55780638ed5b942146106e9578063b862a368146107da578063c0f86b94146107f8578063c2205ee114610850578063f2fde38b1461088457610137565b80637a9e5e4b1461050f5780637c01388c146105535780638115021a146105ab5780638340f54914610603578063886398631461067157610137565b80634d752211116100ff5780634d7522111461038357806351cff8d9146103fb57806357550c7d1461043f5780636f2e35c7146104ad578063715018a61461050557610137565b8063055b93781461013c578063194441cd146101945780632e5e5688146101ec57806332998d37146102445780634b14dc191461029e575b600080fd5b61017e6004803603602081101561015257600080fd5b81019080803573ffffffffffffffffffffffffffffffffffffffff1690602001909291905050506108c8565b6040518082815260200191505060405180910390f35b6101c0600480360360208110156101aa57600080fd5b8101908080359060200190929190505050610930565b604051808273ffffffffffffffffffffffffffffffffffffffff16815260200191505060405180910390f35b61022e6004803603602081101561020257600080fd5b81019080803573ffffffffffffffffffffffffffffffffffffffff16906020019092919050505061096f565b6040518082815260200191505060405180910390f35b6102866004803603602081101561025a57600080fd5b81019080803573ffffffffffffffffffffffffffffffffffffffff16906020019092919050505061097a565b60405180821515815260200191505060405180910390f35b610357600480360360208110156102b457600080fd5b81019080803590602001906401000000008111156102d157600080fd5b8201836020820111156102e357600080fd5b8035906020019184600183028401116401000000008311171561030557600080fd5b91908080601f016020809104026020016040519081016040528093929190818152602001838380828437600081840152601f19601f82011690508083019250505050505050919291929050505061099a565b604051808273ffffffffffffffffffffffffffffffffffffffff16815260200191505060405180910390f35b6103cf6004803603604081101561039957600080fd5b81019080803573ffffffffffffffffffffffffffffffffffffffff169060200190929190803590602001909291905050506109e3565b604051808273ffffffffffffffffffffffffffffffffffffffff16815260200191505060405180910390f35b61043d6004803603602081101561041157600080fd5b81019080803573ffffffffffffffffffffffffffffffffffffffff169060200190929190505050610a31565b005b6104816004803603602081101561045557600080fd5b81019080803573ffffffffffffffffffffffffffffffffffffffff169060200190929190505050610c34565b604051808273ffffffffffffffffffffffffffffffffffffffff16815260200191505060405180910390f35b6104ef600480360360208110156104c357600080fd5b81019080803573ffffffffffffffffffffffffffffffffffffffff169060200190929190505050610c67565b6040518082815260200191505060405180910390f35b61050d610cbd565b005b6105516004803603602081101561052557600080fd5b81019080803573ffffffffffffffffffffffffffffffffffffffff169060200190929190505050610e43565b005b6105956004803603602081101561056957600080fd5b81019080803573ffffffffffffffffffffffffffffffffffffffff169060200190929190505050610f4f565b6040518082815260200191505060405180910390f35b6105d7600480360360208110156105c157600080fd5b8101908080359060200190929190505050610f98565b604051808273ffffffffffffffffffffffffffffffffffffffff16815260200191505060405180910390f35b61066f6004803603606081101561061957600080fd5b81019080803573ffffffffffffffffffffffffffffffffffffffff169060200190929190803573ffffffffffffffffffffffffffffffffffffffff16906020019092919080359060200190929190505050610fd7565b005b6106b36004803603602081101561068757600080fd5b81019080803573ffffffffffffffffffffffffffffffffffffffff1690602001909291905050506115da565b005b6106bd611776565b604051808273ffffffffffffffffffffffffffffffffffffffff16815260200191505060405180910390f35b6107c2600480360360408110156106ff57600080fd5b81019080803573ffffffffffffffffffffffffffffffffffffffff1690602001909291908035906020019064010000000081111561073c57600080fd5b82018360208201111561074e57600080fd5b8035906020019184600183028401116401000000008311171561077057600080fd5b91908080601f016020809104026020016040519081016040528093929190818152602001838380828437600081840152601f19601f82011690508083019250505050505050919291929050505061179f565b60405180821515815260200191505060405180910390f35b6107e26117e4565b6040518082815260200191505060405180910390f35b61083a6004803603602081101561080e57600080fd5b81019080803573ffffffffffffffffffffffffffffffffffffffff1690602001909291905050506118f2565b6040518082815260200191505060405180910390f35b61085861190a565b604051808273ffffffffffffffffffffffffffffffffffffffff16815260200191505060405180910390f35b6108c66004803603602081101561089a57600080fd5b81019080803573ffffffffffffffffffffffffffffffffffffffff169060200190929190505050611930565b005b6000806108d483611b3b565b905061092881600860008673ffffffffffffffffffffffffffffffffffffffff1673ffffffffffffffffffffffffffffffffffffffff16815260200190815260200160002054611d0790919063ffffffff16565b915050919050565b6004818154811061094057600080fd5b906000526020600020016000915054906101000a900473ffffffffffffffffffffffffffffffffffffffff1681565b600060159050919050565b60066020528060005260406000206000915054906101000a900460ff1681565b6002818051602081018201805184825260208301602085012081835280955050505050506000915054906101000a900473ffffffffffffffffffffffffffffffffffffffff1681565b600960205281600052604060002081815481106109ff57600080fd5b906000526020600020016000915091509054906101000a900473ffffffffffffffffffffffffffffffffffffffff1681565b6040518060400160405280600581526020017f4c454d4f4e000000000000000000000000000000000000000000000000000000815250600160009054906101000a900473ffffffffffffffffffffffffffffffffffffffff1673ffffffffffffffffffffffffffffffffffffffff16638ed5b94233836040518363ffffffff1660e01b8152600401808373ffffffffffffffffffffffffffffffffffffffff16815260200180602001828103825283818151815260200191508051906020019080838360005b83811015610b12578082015181840152602081019050610af7565b50505050905090810190601f168015610b3f5780820380516001836020036101000a031916815260200191505b50935050505060206040518083038186803b158015610b5d57600080fd5b505afa158015610b71573d6000803e3d6000fd5b505050506040513d6020811015610b8757600080fd5b8101908080519060200190929190505050610bed576040517f08c379a00000000000000000000000000000000000000000000000000000000081526004018080602001828103825260248152602001806120d66024913960400191505060405180910390fd5b600860008373ffffffffffffffffffffffffffffffffffffffff1673ffffffffffffffffffffffffffffffffffffffff168152602001908152602001600020600090555050565b60076020528060005260406000206000915054906101000a900473ffffffffffffffffffffffffffffffffffffffff1681565b60006201518090506000610c7a8361096f565b9050600081118015610c8d575060158111155b15610c995762278d0091505b601581118015610cab57506101418111155b15610cb7576213c68091505b50919050565b610cc5611d8f565b73ffffffffffffffffffffffffffffffffffffffff1660008054906101000a900473ffffffffffffffffffffffffffffffffffffffff1673ffffffffffffffffffffffffffffffffffffffff1614610d85576040517f08c379a00000000000000000000000000000000000000000000000000000000081526004018080602001828103825260208152602001807f4f776e61626c653a2063616c6c6572206973206e6f7420746865206f776e657281525060200191505060405180910390fd5b600073ffffffffffffffffffffffffffffffffffffffff1660008054906101000a900473ffffffffffffffffffffffffffffffffffffffff1673ffffffffffffffffffffffffffffffffffffffff167f8be0079c531659141344cd1fd0a4f28419497f9722a3daafe3b4186f6b6457e060405160405180910390a360008060006101000a81548173ffffffffffffffffffffffffffffffffffffffff021916908373ffffffffffffffffffffffffffffffffffffffff160217905550565b610e4b611d8f565b73ffffffffffffffffffffffffffffffffffffffff1660008054906101000a900473ffffffffffffffffffffffffffffffffffffffff1673ffffffffffffffffffffffffffffffffffffffff1614610f0b576040517f08c379a00000000000000000000000000000000000000000000000000000000081526004018080602001828103825260208152602001807f4f776e61626c653a2063616c6c6572206973206e6f7420746865206f776e657281525060200191505060405180910390fd5b80600160006101000a81548173ffffffffffffffffffffffffffffffffffffffff021916908373ffffffffffffffffffffffffffffffffffffffff16021790555050565b6000600860008373ffffffffffffffffffffffffffffffffffffffff1673ffffffffffffffffffffffffffffffffffffffff168152602001908152602001600020549050919050565b60058181548110610fa857600080fd5b906000526020600020016000915054906101000a900473ffffffffffffffffffffffffffffffffffffffff1681565b6040518060400160405280600581526020017f4c454d4f4e000000000000000000000000000000000000000000000000000000815250600160009054906101000a900473ffffffffffffffffffffffffffffffffffffffff1673ffffffffffffffffffffffffffffffffffffffff16638ed5b94233836040518363ffffffff1660e01b8152600401808373ffffffffffffffffffffffffffffffffffffffff16815260200180602001828103825283818151815260200191508051906020019080838360005b838110156110b857808201518184015260208101905061109d565b50505050905090810190601f1680156110e55780820380516001836020036101000a031916815260200191505b50935050505060206040518083038186803b15801561110357600080fd5b505afa158015611117573d6000803e3d6000fd5b505050506040513d602081101561112d57600080fd5b8101908080519060200190929190505050611193576040517f08c379a00000000000000000000000000000000000000000000000000000000081526004018080602001828103825260248152602001806120d66024913960400191505060405180910390fd5b600073ffffffffffffffffffffffffffffffffffffffff16600760008673ffffffffffffffffffffffffffffffffffffffff1673ffffffffffffffffffffffffffffffffffffffff16815260200190815260200160002060009054906101000a900473ffffffffffffffffffffffffffffffffffffffff1673ffffffffffffffffffffffffffffffffffffffff1614806112b757508273ffffffffffffffffffffffffffffffffffffffff16600760008673ffffffffffffffffffffffffffffffffffffffff1673ffffffffffffffffffffffffffffffffffffffff16815260200190815260200160002060009054906101000a900473ffffffffffffffffffffffffffffffffffffffff1673ffffffffffffffffffffffffffffffffffffffff16145b611329576040517f08c379a000000000000000000000000000000000000000000000000000000000815260040180806020018281038252601a8152602001807f424142594c4f4e3a2057726f6e67207265636f6d6d656e64657200000000000081525060200191505060405180910390fd5b600073ffffffffffffffffffffffffffffffffffffffff16600760008673ffffffffffffffffffffffffffffffffffffffff1673ffffffffffffffffffffffffffffffffffffffff16815260200190815260200160002060009054906101000a900473ffffffffffffffffffffffffffffffffffffffff1673ffffffffffffffffffffffffffffffffffffffff16141561153f576005849080600181540180825580915050600190039060005260206000200160009091909190916101000a81548173ffffffffffffffffffffffffffffffffffffffff021916908373ffffffffffffffffffffffffffffffffffffffff16021790555082600760008673ffffffffffffffffffffffffffffffffffffffff1673ffffffffffffffffffffffffffffffffffffffff16815260200190815260200160002060006101000a81548173ffffffffffffffffffffffffffffffffffffffff021916908373ffffffffffffffffffffffffffffffffffffffff160217905550600960008473ffffffffffffffffffffffffffffffffffffffff1673ffffffffffffffffffffffffffffffffffffffff168152602001908152602001600020849080600181540180825580915050600190039060005260206000200160009091909190916101000a81548173ffffffffffffffffffffffffffffffffffffffff021916908373ffffffffffffffffffffffffffffffffffffffff1602179055505b61159182600860008773ffffffffffffffffffffffffffffffffffffffff1673ffffffffffffffffffffffffffffffffffffffff16815260200190815260200160002054611d0790919063ffffffff16565b600860008673ffffffffffffffffffffffffffffffffffffffff1673ffffffffffffffffffffffffffffffffffffffff1681526020019081526020016000208190555050505050565b600073ffffffffffffffffffffffffffffffffffffffff168173ffffffffffffffffffffffffffffffffffffffff161415611660576040517f08c379a00000000000000000000000000000000000000000000000000000000081526004018080602001828103825260238152602001806120b36023913960400191505060405180910390fd5b600073ffffffffffffffffffffffffffffffffffffffff16600760003373ffffffffffffffffffffffffffffffffffffffff1673ffffffffffffffffffffffffffffffffffffffff16815260200190815260200160002060009054906101000a900473ffffffffffffffffffffffffffffffffffffffff1673ffffffffffffffffffffffffffffffffffffffff1614156117735780600760003373ffffffffffffffffffffffffffffffffffffffff1673ffffffffffffffffffffffffffffffffffffffff16815260200190815260200160002060006101000a81548173ffffffffffffffffffffffffffffffffffffffff021916908373ffffffffffffffffffffffffffffffffffffffff1602179055505b50565b60008060009054906101000a900473ffffffffffffffffffffffffffffffffffffffff16905090565b6003602052816000526040600020818051602081018201805184825260208301602085012081835280955050505050506000915091509054906101000a900460ff1681565b600080600090505b6004805490508110156118ee57600061183b6004838154811061180b57fe5b9060005260206000200160009054906101000a900473ffffffffffffffffffffffffffffffffffffffff16611d97565b80925081945050506118de600860006004858154811061185757fe5b9060005260206000200160009054906101000a900473ffffffffffffffffffffffffffffffffffffffff1673ffffffffffffffffffffffffffffffffffffffff1673ffffffffffffffffffffffffffffffffffffffff168152602001908152602001600020546118d08386611d0790919063ffffffff16565b611d0790919063ffffffff16565b92505080806001019150506117ec565b5090565b60086020528060005260406000206000915090505481565b600160009054906101000a900473ffffffffffffffffffffffffffffffffffffffff1681565b611938611d8f565b73ffffffffffffffffffffffffffffffffffffffff1660008054906101000a900473ffffffffffffffffffffffffffffffffffffffff1673ffffffffffffffffffffffffffffffffffffffff16146119f8576040517f08c379a00000000000000000000000000000000000000000000000000000000081526004018080602001828103825260208152602001807f4f776e61626c653a2063616c6c6572206973206e6f7420746865206f776e657281525060200191505060405180910390fd5b600073ffffffffffffffffffffffffffffffffffffffff168173ffffffffffffffffffffffffffffffffffffffff161415611a7e576040517f08c379a000000000000000000000000000000000000000000000000000000000815260040180806020018281038252602681526020018061208d6026913960400191505060405180910390fd5b8073ffffffffffffffffffffffffffffffffffffffff1660008054906101000a900473ffffffffffffffffffffffffffffffffffffffff1673ffffffffffffffffffffffffffffffffffffffff167f8be0079c531659141344cd1fd0a4f28419497f9722a3daafe3b4186f6b6457e060405160405180910390a3806000806101000a81548173ffffffffffffffffffffffffffffffffffffffff021916908373ffffffffffffffffffffffffffffffffffffffff16021790555050565b600080600090505b600960008473ffffffffffffffffffffffffffffffffffffffff1673ffffffffffffffffffffffffffffffffffffffff16815260200190815260200160002080549050811015611d01576000600960008573ffffffffffffffffffffffffffffffffffffffff1673ffffffffffffffffffffffffffffffffffffffff1681526020019081526020016000208281548110611bd957fe5b9060005260206000200160009054906101000a900473ffffffffffffffffffffffffffffffffffffffff169050611c58600860008373ffffffffffffffffffffffffffffffffffffffff1673ffffffffffffffffffffffffffffffffffffffff1681526020019081526020016000205484611d0790919063ffffffff16565b92506000600960008373ffffffffffffffffffffffffffffffffffffffff1673ffffffffffffffffffffffffffffffffffffffff1681526020019081526020016000208054905011611caa5750611cf4565b6000611cb582611b3b565b9050611cca8185611d0790919063ffffffff16565b935060008411611cda5783611cef565b611cee600285611f7c90919063ffffffff16565b5b935050505b8080600101915050611b43565b50919050565b600080828401905083811015611d85576040517f08c379a000000000000000000000000000000000000000000000000000000000815260040180806020018281038252601b8152602001807f536166654d6174683a206164646974696f6e206f766572666c6f77000000000081525060200191505060405180910390fd5b8091505092915050565b600033905090565b60008060005b600960008573ffffffffffffffffffffffffffffffffffffffff1673ffffffffffffffffffffffffffffffffffffffff16815260200190815260200160002080549050811015611f76576000600960008673ffffffffffffffffffffffffffffffffffffffff1673ffffffffffffffffffffffffffffffffffffffff1681526020019081526020016000208281548110611e3357fe5b9060005260206000200160009054906101000a900473ffffffffffffffffffffffffffffffffffffffff169050611eb2600860008373ffffffffffffffffffffffffffffffffffffffff1673ffffffffffffffffffffffffffffffffffffffff1681526020019081526020016000205484611d0790919063ffffffff16565b92506000600960008373ffffffffffffffffffffffffffffffffffffffff1673ffffffffffffffffffffffffffffffffffffffff1681526020019081526020016000208054905011611f045750611f69565b6000611f0f82611d97565b8092508196505050611f2a8185611d0790919063ffffffff16565b935060008411611f3a5783611f4f565b611f4e600285611f7c90919063ffffffff16565b5b9350611f648486611d0790919063ffffffff16565b945050505b8080600101915050611d9d565b50915091565b6000611fbe83836040518060400160405280601a81526020017f536166654d6174683a206469766973696f6e206279207a65726f000000000000815250611fc6565b905092915050565b60008083118290612072576040517f08c379a00000000000000000000000000000000000000000000000000000000081526004018080602001828103825283818151815260200191508051906020019080838360005b8381101561203757808201518184015260208101905061201c565b50505050905090810190601f1680156120645780820380516001836020036101000a031916815260200191505b509250505060405180910390fd5b50600083858161207e57fe5b04905080915050939250505056fe4f776e61626c653a206e6577206f776e657220697320746865207a65726f2061646472657373424142594c4f4e3a205375706572696f72206164647265737320697320696e76616c644d656d6265723a20546865206f7065726174696f6e206973206e6f7420616c6c6f776564a264697066735822122029acc54ef89d35f5b3b4227b1dba448acee30623d47fdb489f4ce0328f63e18e64736f6c63430007060033",
  "immutableReferences": {},
  "source": " /**\n * @title Babylon Method\n *\n * @author Bit Lighthouse. Henry Mo\n * AT: 2021-07-02 | VERSION: v1.0.2\n */\n\n// SPDX-License-Identifier: SimPL-2.0\n\npragma solidity ^0.7.0;\n\nimport \"../authority/Member.sol\";\n\nimport \"@openzeppelin/contracts/math/SafeMath.sol\";\n\ncontract Babylon is Member {\n    using SafeMath for uint256;\n\n    address[] public _roots;\n    address[] public _all_users;\n\n    mapping (address => bool) public _is_users;\n    mapping (address => address) public _is_superiors;\n\n    mapping (address => uint256) public _amounts;\n    mapping (address => address[]) public _lowers;\n\n    constructor(address auth_, address root_) Member(auth_) {\n        _roots.push(root_);\n    }\n\n    function _calculate_total(address account_) private view\n        returns (uint256 total, uint256 myself) {\n        \n        for (uint i = 0; i < _lowers[account_].length; i++) {\n            address item = _lowers[account_][i];\n            myself = myself.add(_amounts[item]);\n\n            if (_lowers[item].length <= 0) continue;\n\n            uint256 babylon = 0;\n            (total, babylon) = _calculate_total(item);\n\n            myself = myself.add(babylon);\n            myself = myself > 0 ? myself.div(2) : myself;\n\n            total = total.add(myself);\n        }\n    }\n\n    function _calculate_self(address account_) private view\n        returns (uint256 myself) {\n        \n        for (uint i = 0; i < _lowers[account_].length; i++) {\n            address item = _lowers[account_][i];\n            myself = myself.add(_amounts[item]);\n\n            if (_lowers[item].length <= 0) continue;\n\n            uint256 babylon = _calculate_self(item);\n            myself = myself.add(babylon);\n            myself = myself > 0 ? myself.div(2) : myself;\n        }\n    }\n\n    function get_amount(address account_) public view\n        returns (uint256) {\n\n        return _amounts[account_];\n    }\n\n    function set_superior(address superior) public {\n        require(\n            superior != address(0),\n            \"BABYLON: Superior address is invald\"\n        );\n\n        if (_is_superiors[msg.sender] == address(0)) {\n            _is_superiors[msg.sender] = superior;\n        }\n    }\n\n    function deposit(\n        address account_, address superior_, uint256 amount_\n    ) public CheckPermit(\"LEMON\") {\n        require(\n            _is_superiors[account_] == address(0) ||\n            _is_superiors[account_] == superior_,\n            \"BABYLON: Wrong recommender\"\n        );\n\n        if (_is_superiors[account_] == address(0)) {\n            _all_users.push(account_);\n            _is_superiors[account_] = superior_;\n\n            _lowers[superior_].push(account_);\n        }\n\n        _amounts[account_] = _amounts[account_].add(amount_);\n    }\n\n    function withdraw(address account_) public\n        CheckPermit(\"LEMON\") {\n\n        delete _amounts[account_];\n    }\n\n    function calculation_total() public view\n        returns (uint256 total) {\n\n        for (uint i = 0; i < _roots.length; i++) {\n            uint256 myself = 0;\n            (total, myself) = _calculate_total(_roots[i]);\n\n            total = total.add(myself).add(_amounts[_roots[i]]);\n        }\n    }\n\n    function calculation_myself(address account) public\n        view returns (uint256 total) {\n\n        uint256 babylon = _calculate_self(account);\n        total = _amounts[account].add(babylon);\n    }\n\n    function get_tops(address account_) public pure returns (uint256) {\n        return 21;\n    }\n\n    function get_period(address account_) public pure\n        returns (uint256 period) {\n        \n        period = 1 days; uint256 top = get_tops(account_);\n\n        if (top > 0 && top <= 21) { period = 30 days; } \n        if (top > 21 && top <= 321) { period = 15 days; }\n    }\n}",
  "sourcePath": "/home/ace/Projects/eth/lemo-project/lemo/contracts/core/Babylon.sol",
  "compiler": {
    "name": "solc",
    "version": "0.7.6+commit.7338295f.Emscripten.clang"
  },
  "schemaVersion": "3.3.4",
  "updatedAt": "2021-07-30T01:24:14.133Z",
  "devdoc": {
    "kind": "dev",
    "methods": {
      "owner()": {
        "details": "Returns the address of the current owner."
      },
      "renounceOwnership()": {
        "details": "Leaves the contract without owner. It will not be possible to call `onlyOwner` functions anymore. Can only be called by the current owner. NOTE: Renouncing ownership will leave the contract without an owner, thereby removing any functionality that is only available to the owner."
      },
      "setAuthority(address)": {
        "params": {
          "authority_": "address of manager This function is onwer only"
        }
      },
      "transferOwnership(address)": {
        "details": "Transfers ownership of the contract to a new account (`newOwner`). Can only be called by the current owner."
      }
    },
    "version": 1
  },
  "userdoc": {
    "kind": "user",
    "methods": {
      "setAuthority(address)": {
        "notice": "Set new manager"
      }
    },
    "version": 1
  }
}